:020000040800F2
:10000000600600206D0100087501000877010008F6
:10001000790100087B0100087D0100080000000054
:100020000000000000000000000000007F01000848
:10003000810100080000000083010008850100081C
:100040008701000887010008870100088701000870
:100050008701000887010008870100088701000860
:100060008701000887010008870100088701000850
:100070008701000887010008870100088701000840
:100080008701000887010008870100088701000830
:100090008701000887010008870100088701000820
:1000A0008701000887010008870100088701000810
:1000B0008701000887010008870100088701000800
:1000C00087010008870100088701000887010008F0
:1000D00087010008870100088701000887010008E0
:1000E00087010008870100088701000800F002F876
:1000F00000F02CF80AA090E8000C82448344AAF196
:100100000107DA4501D100F021F8AFF2090EBAE893
:100110000F0013F0010F18BFFB1A43F0010318473B
:100120001002000020020000002300240025002609
:10013000103A28BF78C1FBD8520728BF30C148BF4A
:100140000B6070471FB51FBD10B510BD00F031F832
:100150001146FFF7F7FF00F093F800F04FF803B4F3
:10016000FFF7F2FF03BC00F057F800000948804792
:1001700009480047FEE7FEE7FEE7FEE7FEE7FEE789
:10018000FEE7FEE7FEE7FEE704480549054A064BA1
:100190007047000029020008ED0000086000002000
:1001A0006006002060020020600200207047704757
:1001B0007047754600F02CF8AE4605006946534678
:1001C00020F00700854618B020B5FFF7DDFFBDE839
:1001D00020404FF000064FF000074FF000084FF0AE
:1001E000000B21F00701AC46ACE8C009ACE8C0093F
:1001F000ACE8C009ACE8C0098D46704710B50446AC
:10020000AFF300802046BDE81040FFF7A8BF000014
:10021000004870470000002001491820ABBEFEE7EF
:1002200026000200704700001148006840F00100FD
:100230000F490860084640680E4908400C4948606C
:10024000084600680C4908400949086008460068EB
:1002500020F4802008600846406820F4FE004860D2
:100260004FF41F008860C80304490860704700000D
:10027000001002400000FFF8FFFFF6FE08ED00E06E
:100280002748806940F0100025498861254840686A
:1002900020F44010234948600846406840F440106C
:1002A00048600846406820F4400048601C48806967
:1002B00040F008001A4988611B48006820F00300DC
:1002C000194908600846006840F0030008600846C5
:1002D000006820F00C0008601248006940F00050EF
:1002E0001049086110481030006840F480300E4911
:1002F0001031086013E0002000E0401C0B498842E8
:10030000FBDB0848C06880F400500649C860064816
:100310000C30006880F0010003490C310860EAE706
:100320000010024000100140000C014040420F004C
:1003300040030008000000206006000028010008BB
:04000005080000ED02
:00000001FF
